{
  "abi": [
    {
      "type": "constructor",
      "inputs": [],
      "stateMutability": "nonpayable"
    },
    {
      "type": "function",
      "name": "DEFAULT_ADMIN_ROLE",
      "inputs": [],
      "outputs": [
        {
          "name": "",
          "type": "bytes32",
          "internalType": "bytes32"
        }
      ],
      "stateMutability": "view"
    },
    {
      "type": "function",
      "name": "MANAGER_ROLE",
      "inputs": [],
      "outputs": [
        {
          "name": "",
          "type": "bytes32",
          "internalType": "bytes32"
        }
      ],
      "stateMutability": "view"
    },
    {
      "type": "function",
      "name": "OPERATOR_ROLE",
      "inputs": [],
      "outputs": [
        {
          "name": "",
          "type": "bytes32",
          "internalType": "bytes32"
        }
      ],
      "stateMutability": "view"
    },
    {
      "type": "function",
      "name": "allowance",
      "inputs": [
        {
          "name": "owner",
          "type": "address",
          "internalType": "address"
        },
        {
          "name": "spender",
          "type": "address",
          "internalType": "address"
        }
      ],
      "outputs": [
        {
          "name": "",
          "type": "uint256",
          "internalType": "uint256"
        }
      ],
      "stateMutability": "view"
    },
    {
      "type": "function",
      "name": "approve",
      "inputs": [
        {
          "name": "spender",
          "type": "address",
          "internalType": "address"
        },
        {
          "name": "value",
          "type": "uint256",
          "internalType": "uint256"
        }
      ],
      "outputs": [
        {
          "name": "",
          "type": "bool",
          "internalType": "bool"
        }
      ],
      "stateMutability": "nonpayable"
    },
    {
      "type": "function",
      "name": "asset",
      "inputs": [],
      "outputs": [
        {
          "name": "",
          "type": "address",
          "internalType": "address"
        }
      ],
      "stateMutability": "view"
    },
    {
      "type": "function",
      "name": "assetDeposit",
      "inputs": [],
      "outputs": [
        {
          "name": "",
          "type": "address",
          "internalType": "contract IERC20"
        }
      ],
      "stateMutability": "view"
    },
    {
      "type": "function",
      "name": "balanceOf",
      "inputs": [
        {
          "name": "account",
          "type": "address",
          "internalType": "address"
        }
      ],
      "outputs": [
        {
          "name": "",
          "type": "uint256",
          "internalType": "uint256"
        }
      ],
      "stateMutability": "view"
    },
    {
      "type": "function",
      "name": "convertToAssets",
      "inputs": [
        {
          "name": "shares",
          "type": "uint256",
          "internalType": "uint256"
        }
      ],
      "outputs": [
        {
          "name": "",
          "type": "uint256",
          "internalType": "uint256"
        }
      ],
      "stateMutability": "view"
    },
    {
      "type": "function",
      "name": "convertToShares",
      "inputs": [
        {
          "name": "assets",
          "type": "uint256",
          "internalType": "uint256"
        }
      ],
      "outputs": [
        {
          "name": "",
          "type": "uint256",
          "internalType": "uint256"
        }
      ],
      "stateMutability": "view"
    },
    {
      "type": "function",
      "name": "currentTradeCycleId",
      "inputs": [],
      "outputs": [
        {
          "name": "",
          "type": "uint256",
          "internalType": "uint256"
        }
      ],
      "stateMutability": "view"
    },
    {
      "type": "function",
      "name": "decimals",
      "inputs": [],
      "outputs": [
        {
          "name": "",
          "type": "uint8",
          "internalType": "uint8"
        }
      ],
      "stateMutability": "view"
    },
    {
      "type": "function",
      "name": "delegate",
      "inputs": [
        {
          "name": "data",
          "type": "tuple",
          "internalType": "struct VaultTypes.VaultDelegate",
          "components": [
            {
              "name": "brokerHash",
              "type": "bytes32",
              "internalType": "bytes32"
            },
            {
              "name": "delegateSigner",
              "type": "address",
              "internalType": "address"
            }
          ]
        }
      ],
      "outputs": [],
      "stateMutability": "nonpayable"
    },
    {
      "type": "function",
      "name": "deposit",
      "inputs": [
        {
          "name": "data",
          "type": "tuple",
          "internalType": "struct VaultTypes.VaultDepositFE",
          "components": [
            {
              "name": "accountId",
              "type": "bytes32",
              "internalType": "bytes32"
            },
            {
              "name": "brokerHash",
              "type": "bytes32",
              "internalType": "bytes32"
            },
            {
              "name": "tokenHash",
              "type": "bytes32",
              "internalType": "bytes32"
            },
            {
              "name": "tokenAmount",
              "type": "uint128",
              "internalType": "uint128"
            }
          ]
        }
      ],
      "outputs": [],
      "stateMutability": "nonpayable"
    },
    {
      "type": "function",
      "name": "deposit",
      "inputs": [
        {
          "name": "_assets",
          "type": "uint256",
          "internalType": "uint256"
        },
        {
          "name": "_receiver",
          "type": "address",
          "internalType": "address"
        }
      ],
      "outputs": [
        {
          "name": "shares",
          "type": "uint256",
          "internalType": "uint256"
        }
      ],
      "stateMutability": "nonpayable"
    },
    {
      "type": "function",
      "name": "emergencyPause",
      "inputs": [],
      "outputs": [],
      "stateMutability": "nonpayable"
    },
    {
      "type": "function",
      "name": "emergencyUnpause",
      "inputs": [],
      "outputs": [],
      "stateMutability": "nonpayable"
    },
    {
      "type": "function",
      "name": "endTradeCycle",
      "inputs": [],
      "outputs": [],
      "stateMutability": "nonpayable"
    },
    {
      "type": "function",
      "name": "getRoleAdmin",
      "inputs": [
        {
          "name": "role",
          "type": "bytes32",
          "internalType": "bytes32"
        }
      ],
      "outputs": [
        {
          "name": "",
          "type": "bytes32",
          "internalType": "bytes32"
        }
      ],
      "stateMutability": "view"
    },
    {
      "type": "function",
      "name": "grantRole",
      "inputs": [
        {
          "name": "role",
          "type": "bytes32",
          "internalType": "bytes32"
        },
        {
          "name": "account",
          "type": "address",
          "internalType": "address"
        }
      ],
      "outputs": [],
      "stateMutability": "nonpayable"
    },
    {
      "type": "function",
      "name": "hasRole",
      "inputs": [
        {
          "name": "role",
          "type": "bytes32",
          "internalType": "bytes32"
        },
        {
          "name": "account",
          "type": "address",
          "internalType": "address"
        }
      ],
      "outputs": [
        {
          "name": "",
          "type": "bool",
          "internalType": "bool"
        }
      ],
      "stateMutability": "view"
    },
    {
      "type": "function",
      "name": "initialize",
      "inputs": [
        {
          "name": "_ivault",
          "type": "address",
          "internalType": "address"
        },
        {
          "name": "_assetDeposit",
          "type": "address",
          "internalType": "contract IERC20"
        }
      ],
      "outputs": [],
      "stateMutability": "nonpayable"
    },
    {
      "type": "function",
      "name": "initializeCycle",
      "inputs": [],
      "outputs": [],
      "stateMutability": "nonpayable"
    },
    {
      "type": "function",
      "name": "ivault",
      "inputs": [],
      "outputs": [
        {
          "name": "",
          "type": "address",
          "internalType": "address"
        }
      ],
      "stateMutability": "view"
    },
    {
      "type": "function",
      "name": "maxDeposit",
      "inputs": [
        {
          "name": "",
          "type": "address",
          "internalType": "address"
        }
      ],
      "outputs": [
        {
          "name": "",
          "type": "uint256",
          "internalType": "uint256"
        }
      ],
      "stateMutability": "view"
    },
    {
      "type": "function",
      "name": "maxMint",
      "inputs": [
        {
          "name": "",
          "type": "address",
          "internalType": "address"
        }
      ],
      "outputs": [
        {
          "name": "",
          "type": "uint256",
          "internalType": "uint256"
        }
      ],
      "stateMutability": "view"
    },
    {
      "type": "function",
      "name": "maxRedeem",
      "inputs": [
        {
          "name": "owner",
          "type": "address",
          "internalType": "address"
        }
      ],
      "outputs": [
        {
          "name": "",
          "type": "uint256",
          "internalType": "uint256"
        }
      ],
      "stateMutability": "view"
    },
    {
      "type": "function",
      "name": "maxUserDeposit",
      "inputs": [],
      "outputs": [
        {
          "name": "",
          "type": "uint256",
          "internalType": "uint256"
        }
      ],
      "stateMutability": "view"
    },
    {
      "type": "function",
      "name": "maxWithdraw",
      "inputs": [
        {
          "name": "owner",
          "type": "address",
          "internalType": "address"
        }
      ],
      "outputs": [
        {
          "name": "",
          "type": "uint256",
          "internalType": "uint256"
        }
      ],
      "stateMutability": "view"
    },
    {
      "type": "function",
      "name": "mint",
      "inputs": [
        {
          "name": "_shares",
          "type": "uint256",
          "internalType": "uint256"
        },
        {
          "name": "_receiver",
          "type": "address",
          "internalType": "address"
        }
      ],
      "outputs": [
        {
          "name": "assets",
          "type": "uint256",
          "internalType": "uint256"
        }
      ],
      "stateMutability": "nonpayable"
    },
    {
      "type": "function",
      "name": "name",
      "inputs": [],
      "outputs": [
        {
          "name": "",
          "type": "string",
          "internalType": "string"
        }
      ],
      "stateMutability": "view"
    },
    {
      "type": "function",
      "name": "paused",
      "inputs": [],
      "outputs": [
        {
          "name": "",
          "type": "bool",
          "internalType": "bool"
        }
      ],
      "stateMutability": "view"
    },
    {
      "type": "function",
      "name": "previewDeposit",
      "inputs": [
        {
          "name": "assets",
          "type": "uint256",
          "internalType": "uint256"
        }
      ],
      "outputs": [
        {
          "name": "",
          "type": "uint256",
          "internalType": "uint256"
        }
      ],
      "stateMutability": "view"
    },
    {
      "type": "function",
      "name": "previewMint",
      "inputs": [
        {
          "name": "shares",
          "type": "uint256",
          "internalType": "uint256"
        }
      ],
      "outputs": [
        {
          "name": "",
          "type": "uint256",
          "internalType": "uint256"
        }
      ],
      "stateMutability": "view"
    },
    {
      "type": "function",
      "name": "previewRedeem",
      "inputs": [
        {
          "name": "shares",
          "type": "uint256",
          "internalType": "uint256"
        }
      ],
      "outputs": [
        {
          "name": "",
          "type": "uint256",
          "internalType": "uint256"
        }
      ],
      "stateMutability": "view"
    },
    {
      "type": "function",
      "name": "previewWithdraw",
      "inputs": [
        {
          "name": "assets",
          "type": "uint256",
          "internalType": "uint256"
        }
      ],
      "outputs": [
        {
          "name": "",
          "type": "uint256",
          "internalType": "uint256"
        }
      ],
      "stateMutability": "view"
    },
    {
      "type": "function",
      "name": "redeem",
      "inputs": [
        {
          "name": "_shares",
          "type": "uint256",
          "internalType": "uint256"
        },
        {
          "name": "_receiver",
          "type": "address",
          "internalType": "address"
        },
        {
          "name": "_owner",
          "type": "address",
          "internalType": "address"
        }
      ],
      "outputs": [
        {
          "name": "assets",
          "type": "uint256",
          "internalType": "uint256"
        }
      ],
      "stateMutability": "nonpayable"
    },
    {
      "type": "function",
      "name": "renounceRole",
      "inputs": [
        {
          "name": "role",
          "type": "bytes32",
          "internalType": "bytes32"
        },
        {
          "name": "callerConfirmation",
          "type": "address",
          "internalType": "address"
        }
      ],
      "outputs": [],
      "stateMutability": "nonpayable"
    },
    {
      "type": "function",
      "name": "requestToEndTradeCycle",
      "inputs": [],
      "outputs": [],
      "stateMutability": "nonpayable"
    },
    {
      "type": "function",
      "name": "revokeRole",
      "inputs": [
        {
          "name": "role",
          "type": "bytes32",
          "internalType": "bytes32"
        },
        {
          "name": "account",
          "type": "address",
          "internalType": "address"
        }
      ],
      "outputs": [],
      "stateMutability": "nonpayable"
    },
    {
      "type": "function",
      "name": "startTradeCycle",
      "inputs": [
        {
          "name": "_duration",
          "type": "uint256",
          "internalType": "uint256"
        }
      ],
      "outputs": [],
      "stateMutability": "nonpayable"
    },
    {
      "type": "function",
      "name": "supportsInterface",
      "inputs": [
        {
          "name": "interfaceId",
          "type": "bytes4",
          "internalType": "bytes4"
        }
      ],
      "outputs": [
        {
          "name": "",
          "type": "bool",
          "internalType": "bool"
        }
      ],
      "stateMutability": "view"
    },
    {
      "type": "function",
      "name": "symbol",
      "inputs": [],
      "outputs": [
        {
          "name": "",
          "type": "string",
          "internalType": "string"
        }
      ],
      "stateMutability": "view"
    },
    {
      "type": "function",
      "name": "totalAssets",
      "inputs": [],
      "outputs": [
        {
          "name": "",
          "type": "uint256",
          "internalType": "uint256"
        }
      ],
      "stateMutability": "view"
    },
    {
      "type": "function",
      "name": "totalSupply",
      "inputs": [],
      "outputs": [
        {
          "name": "",
          "type": "uint256",
          "internalType": "uint256"
        }
      ],
      "stateMutability": "view"
    },
    {
      "type": "function",
      "name": "totalTVL",
      "inputs": [],
      "outputs": [
        {
          "name": "",
          "type": "uint256",
          "internalType": "uint256"
        }
      ],
      "stateMutability": "view"
    },
    {
      "type": "function",
      "name": "totalUsers",
      "inputs": [],
      "outputs": [
        {
          "name": "",
          "type": "uint256",
          "internalType": "uint256"
        }
      ],
      "stateMutability": "view"
    },
    {
      "type": "function",
      "name": "tradeCycles",
      "inputs": [
        {
          "name": "",
          "type": "uint256",
          "internalType": "uint256"
        }
      ],
      "outputs": [
        {
          "name": "status",
          "type": "uint8",
          "internalType": "enum Data.TradeCycleStatus"
        },
        {
          "name": "startedAt",
          "type": "uint256",
          "internalType": "uint256"
        },
        {
          "name": "endedAt",
          "type": "uint256",
          "internalType": "uint256"
        },
        {
          "name": "AmountAvailable",
          "type": "uint256",
          "internalType": "uint256"
        }
      ],
      "stateMutability": "view"
    },
    {
      "type": "function",
      "name": "transfer",
      "inputs": [
        {
          "name": "to",
          "type": "address",
          "internalType": "address"
        },
        {
          "name": "value",
          "type": "uint256",
          "internalType": "uint256"
        }
      ],
      "outputs": [
        {
          "name": "",
          "type": "bool",
          "internalType": "bool"
        }
      ],
      "stateMutability": "nonpayable"
    },
    {
      "type": "function",
      "name": "transferFrom",
      "inputs": [
        {
          "name": "from",
          "type": "address",
          "internalType": "address"
        },
        {
          "name": "to",
          "type": "address",
          "internalType": "address"
        },
        {
          "name": "value",
          "type": "uint256",
          "internalType": "uint256"
        }
      ],
      "outputs": [
        {
          "name": "",
          "type": "bool",
          "internalType": "bool"
        }
      ],
      "stateMutability": "nonpayable"
    },
    {
      "type": "function",
      "name": "updateTradeCycleDuration",
      "inputs": [
        {
          "name": "_newTradeCycleEndDate",
          "type": "uint40",
          "internalType": "uint40"
        }
      ],
      "outputs": [],
      "stateMutability": "nonpayable"
    },
    {
      "type": "function",
      "name": "updateVariable",
      "inputs": [
        {
          "name": "vault",
          "type": "address",
          "internalType": "address"
        },
        {
          "name": "asset",
          "type": "address",
          "internalType": "address"
        }
      ],
      "outputs": [],
      "stateMutability": "nonpayable"
    },
    {
      "type": "function",
      "name": "userDeposits",
      "inputs": [
        {
          "name": "",
          "type": "address",
          "internalType": "address"
        }
      ],
      "outputs": [
        {
          "name": "",
          "type": "uint256",
          "internalType": "uint256"
        }
      ],
      "stateMutability": "view"
    },
    {
      "type": "function",
      "name": "whitelisted",
      "inputs": [
        {
          "name": "",
          "type": "address",
          "internalType": "address"
        }
      ],
      "outputs": [
        {
          "name": "",
          "type": "bool",
          "internalType": "bool"
        }
      ],
      "stateMutability": "view"
    },
    {
      "type": "function",
      "name": "withdraw",
      "inputs": [
        {
          "name": "_assets",
          "type": "uint256",
          "internalType": "uint256"
        },
        {
          "name": "_receiver",
          "type": "address",
          "internalType": "address"
        },
        {
          "name": "_owner",
          "type": "address",
          "internalType": "address"
        }
      ],
      "outputs": [
        {
          "name": "shares",
          "type": "uint256",
          "internalType": "uint256"
        }
      ],
      "stateMutability": "nonpayable"
    },
    {
      "type": "event",
      "name": "Approval",
      "inputs": [
        {
          "name": "owner",
          "type": "address",
          "indexed": true,
          "internalType": "address"
        },
        {
          "name": "spender",
          "type": "address",
          "indexed": true,
          "internalType": "address"
        },
        {
          "name": "value",
          "type": "uint256",
          "indexed": false,
          "internalType": "uint256"
        }
      ],
      "anonymous": false
    },
    {
      "type": "event",
      "name": "Deposit",
      "inputs": [
        {
          "name": "sender",
          "type": "address",
          "indexed": true,
          "internalType": "address"
        },
        {
          "name": "owner",
          "type": "address",
          "indexed": true,
          "internalType": "address"
        },
        {
          "name": "assets",
          "type": "uint256",
          "indexed": false,
          "internalType": "uint256"
        },
        {
          "name": "shares",
          "type": "uint256",
          "indexed": false,
          "internalType": "uint256"
        }
      ],
      "anonymous": false
    },
    {
      "type": "event",
      "name": "Initialized",
      "inputs": [
        {
          "name": "version",
          "type": "uint64",
          "indexed": false,
          "internalType": "uint64"
        }
      ],
      "anonymous": false
    },
    {
      "type": "event",
      "name": "Paused",
      "inputs": [
        {
          "name": "account",
          "type": "address",
          "indexed": false,
          "internalType": "address"
        }
      ],
      "anonymous": false
    },
    {
      "type": "event",
      "name": "RoleAdminChanged",
      "inputs": [
        {
          "name": "role",
          "type": "bytes32",
          "indexed": true,
          "internalType": "bytes32"
        },
        {
          "name": "previousAdminRole",
          "type": "bytes32",
          "indexed": true,
          "internalType": "bytes32"
        },
        {
          "name": "newAdminRole",
          "type": "bytes32",
          "indexed": true,
          "internalType": "bytes32"
        }
      ],
      "anonymous": false
    },
    {
      "type": "event",
      "name": "RoleGranted",
      "inputs": [
        {
          "name": "role",
          "type": "bytes32",
          "indexed": true,
          "internalType": "bytes32"
        },
        {
          "name": "account",
          "type": "address",
          "indexed": true,
          "internalType": "address"
        },
        {
          "name": "sender",
          "type": "address",
          "indexed": true,
          "internalType": "address"
        }
      ],
      "anonymous": false
    },
    {
      "type": "event",
      "name": "RoleRevoked",
      "inputs": [
        {
          "name": "role",
          "type": "bytes32",
          "indexed": true,
          "internalType": "bytes32"
        },
        {
          "name": "account",
          "type": "address",
          "indexed": true,
          "internalType": "address"
        },
        {
          "name": "sender",
          "type": "address",
          "indexed": true,
          "internalType": "address"
        }
      ],
      "anonymous": false
    },
    {
      "type": "event",
      "name": "TradeCycleEnded",
      "inputs": [
        {
          "name": "tradeCycleId",
          "type": "uint256",
          "indexed": true,
          "internalType": "uint256"
        },
        {
          "name": "endedAt",
          "type": "uint256",
          "indexed": false,
          "internalType": "uint256"
        }
      ],
      "anonymous": false
    },
    {
      "type": "event",
      "name": "TradeCycleInit",
      "inputs": [
        {
          "name": "tradeCycleId",
          "type": "uint256",
          "indexed": true,
          "internalType": "uint256"
        }
      ],
      "anonymous": false
    },
    {
      "type": "event",
      "name": "TradeCyclePendingEnd",
      "inputs": [
        {
          "name": "tradeCycleId",
          "type": "uint256",
          "indexed": true,
          "internalType": "uint256"
        }
      ],
      "anonymous": false
    },
    {
      "type": "event",
      "name": "TradeCycleStarted",
      "inputs": [
        {
          "name": "tradeCycleId",
          "type": "uint256",
          "indexed": true,
          "internalType": "uint256"
        },
        {
          "name": "honeyDeposit",
          "type": "uint256",
          "indexed": false,
          "internalType": "uint256"
        },
        {
          "name": "startedAt",
          "type": "uint256",
          "indexed": false,
          "internalType": "uint256"
        },
        {
          "name": "expiresAt",
          "type": "uint256",
          "indexed": false,
          "internalType": "uint256"
        }
      ],
      "anonymous": false
    },
    {
      "type": "event",
      "name": "Transfer",
      "inputs": [
        {
          "name": "from",
          "type": "address",
          "indexed": true,
          "internalType": "address"
        },
        {
          "name": "to",
          "type": "address",
          "indexed": true,
          "internalType": "address"
        },
        {
          "name": "value",
          "type": "uint256",
          "indexed": false,
          "internalType": "uint256"
        }
      ],
      "anonymous": false
    },
    {
      "type": "event",
      "name": "Unpaused",
      "inputs": [
        {
          "name": "account",
          "type": "address",
          "indexed": false,
          "internalType": "address"
        }
      ],
      "anonymous": false
    },
    {
      "type": "event",
      "name": "Withdraw",
      "inputs": [
        {
          "name": "sender",
          "type": "address",
          "indexed": true,
          "internalType": "address"
        },
        {
          "name": "receiver",
          "type": "address",
          "indexed": true,
          "internalType": "address"
        },
        {
          "name": "owner",
          "type": "address",
          "indexed": true,
          "internalType": "address"
        },
        {
          "name": "assets",
          "type": "uint256",
          "indexed": false,
          "internalType": "uint256"
        },
        {
          "name": "shares",
          "type": "uint256",
          "indexed": false,
          "internalType": "uint256"
        }
      ],
      "anonymous": false
    },
    {
      "type": "error",
      "name": "AccessControlBadConfirmation",
      "inputs": []
    },
    {
      "type": "error",
      "name": "AccessControlUnauthorizedAccount",
      "inputs": [
        {
          "name": "account",
          "type": "address",
          "internalType": "address"
        },
        {
          "name": "neededRole",
          "type": "bytes32",
          "internalType": "bytes32"
        }
      ]
    },
    {
      "type": "error",
      "name": "ERC20InsufficientAllowance",
      "inputs": [
        {
          "name": "spender",
          "type": "address",
          "internalType": "address"
        },
        {
          "name": "allowance",
          "type": "uint256",
          "internalType": "uint256"
        },
        {
          "name": "needed",
          "type": "uint256",
          "internalType": "uint256"
        }
      ]
    },
    {
      "type": "error",
      "name": "ERC20InsufficientBalance",
      "inputs": [
        {
          "name": "sender",
          "type": "address",
          "internalType": "address"
        },
        {
          "name": "balance",
          "type": "uint256",
          "internalType": "uint256"
        },
        {
          "name": "needed",
          "type": "uint256",
          "internalType": "uint256"
        }
      ]
    },
    {
      "type": "error",
      "name": "ERC20InvalidApprover",
      "inputs": [
        {
          "name": "approver",
          "type": "address",
          "internalType": "address"
        }
      ]
    },
    {
      "type": "error",
      "name": "ERC20InvalidReceiver",
      "inputs": [
        {
          "name": "receiver",
          "type": "address",
          "internalType": "address"
        }
      ]
    },
    {
      "type": "error",
      "name": "ERC20InvalidSender",
      "inputs": [
        {
          "name": "sender",
          "type": "address",
          "internalType": "address"
        }
      ]
    },
    {
      "type": "error",
      "name": "ERC20InvalidSpender",
      "inputs": [
        {
          "name": "spender",
          "type": "address",
          "internalType": "address"
        }
      ]
    },
    {
      "type": "error",
      "name": "ERC4626ExceededMaxDeposit",
      "inputs": [
        {
          "name": "receiver",
          "type": "address",
          "internalType": "address"
        },
        {
          "name": "assets",
          "type": "uint256",
          "internalType": "uint256"
        },
        {
          "name": "max",
          "type": "uint256",
          "internalType": "uint256"
        }
      ]
    },
    {
      "type": "error",
      "name": "ERC4626ExceededMaxMint",
      "inputs": [
        {
          "name": "receiver",
          "type": "address",
          "internalType": "address"
        },
        {
          "name": "shares",
          "type": "uint256",
          "internalType": "uint256"
        },
        {
          "name": "max",
          "type": "uint256",
          "internalType": "uint256"
        }
      ]
    },
    {
      "type": "error",
      "name": "ERC4626ExceededMaxRedeem",
      "inputs": [
        {
          "name": "owner",
          "type": "address",
          "internalType": "address"
        },
        {
          "name": "shares",
          "type": "uint256",
          "internalType": "uint256"
        },
        {
          "name": "max",
          "type": "uint256",
          "internalType": "uint256"
        }
      ]
    },
    {
      "type": "error",
      "name": "ERC4626ExceededMaxWithdraw",
      "inputs": [
        {
          "name": "owner",
          "type": "address",
          "internalType": "address"
        },
        {
          "name": "assets",
          "type": "uint256",
          "internalType": "uint256"
        },
        {
          "name": "max",
          "type": "uint256",
          "internalType": "uint256"
        }
      ]
    },
    {
      "type": "error",
      "name": "EnforcedPause",
      "inputs": []
    },
    {
      "type": "error",
      "name": "ExpectedPause",
      "inputs": []
    },
    {
      "type": "error",
      "name": "InvalidInitialization",
      "inputs": []
    },
    {
      "type": "error",
      "name": "NotInitializing",
      "inputs": []
    },
    {
      "type": "error",
      "name": "OperationFailed",
      "inputs": []
    },
    {
      "type": "error",
      "name": "ReentrancyGuardReentrantCall",
      "inputs": []
    },
    {
      "type": "error",
      "name": "SafeERC20FailedOperation",
      "inputs": [
        {
          "name": "token",
          "type": "address",
          "internalType": "address"
        }
      ]
    },
    {
      "type": "error",
      "name": "ZeroAddress",
      "inputs": []
    },
    {
      "type": "error",
      "name": "ZeroAmount",
      "inputs": []
    }
  ],
  "bytecode": {
    "object": "0x608060405234602357600e6027565b60146027565b6040516130f990816100bc8239f35b5f80fd5b5f5160206131b55f395f51905f525460ff8160401c1660ac576002600160401b03196001600160401b03821601605a5750565b6001600160401b0319166001600160401b039081175f5160206131b55f395f51905f52556040519081527fc7f505b2f371ae2175ee4913f4499e1f2633a7b5936321eed1cdaeb6115181d290602090a1565b63f92ee8a960e01b5f5260045ffdfe60806040526004361015610011575f80fd5b5f5f3560e01c806301e1d114146121d557806301ffc9a71461217f57806306fdde031461209d578063073a831c1461201b57806307a2d13a146111cf578063095ea7b314611f765780630a28a47714611f585780630ba36dcd14611f205780631565878814611ca157806318160ddd14611c785780631dd1707f14611bd257806323b872dd14611b9a578063248a9ca314611b635780632f2ff15d14611b19578063313ce56714611acd578063322dda6d146119ab578063361341991461198257806336568abe1461193d57806338d52e0f14611908578063402d267d1461052357806344d45b9d146118af578063485cc955146112725780634a1232d9146112545780634a4e3bd5146111d45780634cdad506146111cf57806351858e271461115c5780635c975abb1461112d5780635f204e2d146111065780636e553f6514610f1057806370a082311461040757806391d1485414610eba57806394bf804d14610cd857806395d89b4114610be15780639e28a10e14610b7f578063a217fddf14610b63578063a8bc6f7c14610b45578063a9059cbb14610b13578063aa9c5fc414610af5578063b2b80f6714610a6d578063b3d7f6b914610a4e578063b460af94146107f4578063ba08765214610546578063bff1f9e114610528578063c63d75b614610523578063c6e6f592146102b4578063cd0206c2146104cc578063ce96cb77146104a8578063d547741f14610454578063d905777e14610407578063d936547e146103c8578063dd62ed3e14610380578063ec87621c14610345578063ec90e42f146102b9578063ef8b30f7146102b45763f5b541a614610277575f80fd5b346102b157806003193601126102b15760206040517f97667070c54ef182b0f5858b034beac1b6f3089aa2d3188bb1e8929f4fa9b9298152f35b80fd5b612304565b50346102b15760403660031901126102b15760015481906001600160a01b0316803b1561034257604051632df4869b60e01b815260048035908201529082908290604490829084906001600160a01b0361031161224d565b1660248401525af18015610337576103265750f35b816103309161235a565b6102b15780f35b6040513d84823e3d90fd5b50fd5b50346102b157806003193601126102b15760206040517f241ecf16d79d0f8dbfb92cbc07fe17840425976cf0667f022fe9877caa831b088152f35b50346102b15760403660031901126102b15761039a612237565b6103ab6103a561224d565b91612263565b9060018060a01b03165f52602052602060405f2054604051908152f35b50346102b15760203660031901126102b15760209060ff906040906001600160a01b036103f3612237565b168152600284522054166040519015158152f35b50346102b15760203660031901126102b157602061044c610426612237565b6001600160a01b03165f9081525f516020612fc45f395f51905f52602052604090205490565b604051908152f35b50346102b15760403660031901126102b1576104a460043561047461224d565b9061049f61049a825f525f5160206130245f395f51905f52602052600160405f20015490565b6124de565b612a52565b5080f35b50346102b15760203660031901126102b157602061044c6104c7612237565b612460565b50346102b15760203660031901126102b15760043564ffffffffff811680910361051f576104f861248f565b60075482526006602052604082208164ffffffffff42161161051b576003015580f35b8280fd5b5080fd5b61229b565b50346102b157806003193601126102b1576020600554604051908152f35b50346102b157610555366122ca565b90929160075483526006602052604083206040519061057382612322565b60ff815416610581816122c0565b82526001810180549067ffffffffffffffff82116107e057604051916105ad60208260051b018461235a565b808352602083019188526020882088925b82841061076457505050506020830152600281015460408301526003810154606083015260040154608082015280516105f6816122c0565b6105ff816122c0565b15159081610745575b5061073657610615612524565b60025f5160206130845f395f51905f5254146107275760025f5160206130845f395f51905f52556001600160a01b0382168084525f516020612fc45f395f51905f52602052604084205490949080831161070c575090610681916106788261254b565b93849133612c80565b80156106fd5760209133815260048352816040822054115f146106d05760409033815260048452206106b4828254612453565b90555b60015f5160206130845f395f51905f5255604051908152f35b338152600483526040812055600554806106eb575b506106b7565b6106f490612447565b600555826106e5565b631f2a200560e01b8252600482fd5b925050606493632e52afbb60e21b8452600452602452604452fd5b633ee5aeb560e01b8352600483fd5b6301b2776960e11b8352600483fd5b6003915051610753816122c0565b61075c816122c0565b14155f610608565b6040516107708161233e565b825460ff811660038110156107cc57928262ffffff6020936001966005965260081c16838201528486015460408201526002860154606082015260038601546080820152600486015460a08201528152019201930192906105be565b634e487b7160e01b8d52602160045260248dfd5b634e487b7160e01b87526041600452602487fd5b50346102b157610803366122ca565b91909260075481526006602052604081206040519061082182612322565b60ff81541661082f816122c0565b82526001810180549067ffffffffffffffff8211610a3a576040519161085b60208260051b018461235a565b808352602083019186526020862086925b8284106109be57505050506020830152600281015460408301526003810154606083015260040154608082015280516108a4816122c0565b6108ad816122c0565b1515908161099f575b50610990576108c3612524565b8115610981573381526004602052816040822054115f14610952573381526004602052604081206108f5838254612453565b90555b61090482600854612453565b60085561091083612460565b8083116109315760208461044c8786610928816125be565b93849233612c80565b60649284633fa733bb60e21b845260018060a01b0316600452602452604452fd5b33815260046020528060408120556005548061096f575b506108f8565b61097890612447565b6005555f610969565b631f2a200560e01b8152600490fd5b6301b2776960e11b8152600490fd5b60039150516109ad816122c0565b6109b6816122c0565b14155f6108b6565b6040516109ca8161233e565b825460ff81166003811015610a2657928262ffffff6020936001966005965260081c16838201528486015460408201526002860154606082015260038601546080820152600486015460a082015281520192019301929061086c565b634e487b7160e01b8b52602160045260248bfd5b634e487b7160e01b85526041600452602485fd5b50346102b15760203660031901126102b157602061044c600435612584565b50346102b15760403660031901126102b157610a87612237565b6001600160a01b03610a9761224d565b169081158015610ae4575b610ad55760018060a01b03166001600160601b0360a01b60015416176001556001600160601b0360a01b82541617815580f35b63d92e233d60e01b8352600483fd5b506001600160a01b03811615610aa2565b50346102b157806003193601126102b1576020600354604051908152f35b50346102b15760403660031901126102b157610b3a610b30612237565b60243590336126cf565b602060405160018152f35b50346102b157806003193601126102b1576020600854604051908152f35b50346102b157806003193601126102b157602090604051908152f35b50346102b157806003193601126102b157610b9861248f565b610ba0612524565b6007818155818052600660205260408220805460ff19169055547f898a3db72f73f883c36813d1ea413abbcfb3f82c88cc6c32cf8ac3c5034923898280a280f35b50346102b157806003193601126102b15760405190805f516020612fe45f395f51905f525490610c10826123f4565b8085529160018116908115610cb15750600114610c48575b610c4484610c388186038261235a565b604051918291826121ef565b0390f35b5f516020612fe45f395f51905f5281527f46a2803e59a4de4e7a4c574b1243f25977ac4c77d5a1a4a609b5394cebb4a2aa939250905b808210610c9757509091508101602001610c3882610c28565b919260018160209254838588010152019101909291610c7e565b60ff191660208087019190915292151560051b85019092019250610c389150839050610c28565b50346102b15760403660031901126102b157600435610cf561224d565b90600754835260066020526040832060405190610d1182612322565b60ff815416610d1f816122c0565b82526001810180549067ffffffffffffffff82116107e05760405191610d4b60208260051b018461235a565b808352602083019188526020882088925b828410610e525750505050602083015260028101546040830152600381015460608301526004015460808201528051610d94816122c0565b610d9d816122c0565b15159081610e33575b5061073657610db3612524565b610dbc8161254b565b8015610e24579061044c91610df6604060209633815260048852818120541580610e1c575b610e09575b338152600488522091825461242c565b9055610e0181612584565b809333612b76565b610e14600554612439565b600555610de6565b506001610de1565b631f2a200560e01b8452600484fd5b6003915051610e41816122c0565b610e4a816122c0565b14155f610da6565b604051610e5e8161233e565b825460ff811660038110156107cc57928262ffffff6020936001966005965260081c16838201528486015460408201526002860154606082015260038601546080820152600486015460a0820152815201920193019290610d5c565b50346102b15760403660031901126102b1576040610ed661224d565b9160043581525f5160206130245f395f51905f52602052209060018060a01b03165f52602052602060ff60405f2054166040519015158152f35b50346102b15760403660031901126102b157600435610f2d61224d565b600754835260066020526040832060405190610f4882612322565b60ff815416610f56816122c0565b82526001810180549067ffffffffffffffff82116107e05760405191610f8260208260051b018461235a565b808352602083019188526020882088925b82841061109e5750505050602083015260028101546040830152600381015460608301526004015460808201528051610fcb816122c0565b610fd4816122c0565b1515908161107f575b5061073657610fea612524565b8115611070576001600160a01b03811615610ad55761044c90604060209433815260048652818120541580611068575b611055575b338152600486522061103284825461242c565b90556110408360085461242c565b60085561104c836125f8565b92839133612b76565b611060600554612439565b60055561101f565b50600161101a565b631f2a200560e01b8352600483fd5b600391505161108d816122c0565b611096816122c0565b14155f610fdd565b6040516110aa8161233e565b825460ff811660038110156107cc57928262ffffff6020936001966005965260081c16838201528486015460408201526002860154606082015260038601546080820152600486015460a0820152815201920193019290610f93565b50346102b157806003193601126102b157546040516001600160a01b039091168152602090f35b50346102b157806003193601126102b157602060ff5f5160206130645f395f51905f5254166040519015158152f35b50346102b157806003193601126102b15761117561248f565b61117d612524565b600160ff195f5160206130645f395f51905f525416175f5160206130645f395f51905f52557f62e78cea01bee320cd4e420270b5ea74000d11b0c9f74754ebdbfc544b05a2586020604051338152a180f35b612219565b50346102b157806003193601126102b1576111ed61248f565b5f5160206130645f395f51905f525460ff8116156112455760ff19165f5160206130645f395f51905f52557f5db9ee0a495bf2e6ff9c91a7834c1ba4fdd244a5e8aa4e537bd38aeae4b073aa6020604051338152a180f35b638dfc202b60e01b8252600482fd5b50346102b157806003193601126102b1576020600754604051908152f35b50346102b15760403660031901126102b15761128c612237565b602435906001600160a01b0382168083036118ab575f5160206130a45f395f51905f52549160ff8360401c16159267ffffffffffffffff8116801590816118a3575b6001149081611899575b159081611890575b506118815767ffffffffffffffff1981166001175f5160206130a45f395f51905f525583611855575b5081158081159182611844575b611835576040958651611329888261235a565b601c81527f4469726163204b6f6469616b2050657270657475616c205661756c74000000006020820152875190611360898361235a565b60048252632225a82b60e11b6020830152611379612b4b565b611381612b4b565b80519067ffffffffffffffff82116118215781906113ac5f516020612fa45f395f51905f52546123f4565b601f81116117a7575b50602090601f831160011461172b578c92611720575b50508160011b915f199060031b1c1916175f516020612fa45f395f51905f52555b80519067ffffffffffffffff821161170c57908692916114195f516020612fe45f395f51905f52546123f4565b601f811161168e575b50602090601f8311600114611608576114759392918c91836115fd575b50508160011b915f199060031b1c1916175f516020612fe45f395f51905f52555b611468612b4b565b611470612b4b565b612e74565b90156115f5575b5f5160206130445f395f51905f52549060ff60a01b9060a01b16906affffffffffffffffffffff60a81b1617175f5160206130445f395f51905f52556114c0612b4b565b6114c9336127b3565b506114d33361284f565b506114dd33612908565b506114e6612b4b565b6114ee612b4b565b6114f6612b4b565b6114fe612b4b565b60015f5160206130845f395f51905f5255906115e4575b6115a8578460085560018060a01b03166001600160601b0360a01b60015416176001556001600160601b0360a01b845416178355611551575080f35b60207fc7f505b2f371ae2175ee4913f4499e1f2633a7b5936321eed1cdaeb6115181d29168ff0000000000000000195f5160206130a45f395f51905f5254165f5160206130a45f395f51905f52555160018152a180f35b835162461bcd60e51b815260206004820152601560248201527416995c9bc81859191c995cdcc81c1c9bdd9a591959605a1b6044820152606490fd5b506001600160a01b03811615611515565b50601261147c565b015190505f8061143f565b5f516020612fe45f395f51905f528c52818c209493929190601f1983168d5b81811061167357509161147595969184600195941061165b575b505050811b015f516020612fe45f395f51905f5255611460565b01515f1960f88460031b161c191690555f8080611641565b8383015188556001909701968b965060209384019301611627565b5f516020612fe45f395f51905f528c5292935090917f46a2803e59a4de4e7a4c574b1243f25977ac4c77d5a1a4a609b5394cebb4a2aa601f840160051c81019160208510611702575b90601f8a96959493920160051c01905b8181106116f45750611422565b8c81558995506001016116e7565b90915081906116d7565b634e487b7160e01b8a52604160045260248afd5b015190505f806113cb565b5f516020612fa45f395f51905f528d52818d209250601f1984168d5b81811061178f5750908460019594939210611777575b505050811b015f516020612fa45f395f51905f52556113ec565b01515f1960f88460031b161c191690555f808061175d565b92936020600181928786015181550195019301611747565b5f516020612fa45f395f51905f528d529091507f2ae08a8e29253f69ac5d979a101956ab8f8d9d7ded63fa7a83b16fc47648eab0601f840160051c81019160208510611817575b90601f859493920160051c01905b81811061180957506113b5565b8d81558493506001016117fc565b90915081906117ee565b634e487b7160e01b8b52604160045260248bfd5b63d92e233d60e01b8752600487fd5b506001600160a01b03831615611316565b68ffffffffffffffffff191668010000000000000001175f5160206130a45f395f51905f52555f611309565b63f92ee8a960e01b8652600486fd5b9050155f6112e0565b303b1591506112d8565b8591506112ce565b8380fd5b50346102b15760203660031901126102b1576040608091600435815260066020522060ff815416906002810154906004600382015491015491604051936118f5816122c0565b8452602084015260408301526060820152f35b50346102b157806003193601126102b1575f5160206130445f395f51905f52546040516001600160a01b039091168152602090f35b50346102b15760403660031901126102b15761195761224d565b336001600160a01b03821603611973576104a490600435612a52565b63334bd91960e11b8252600482fd5b50346102b157806003193601126102b1576001546040516001600160a01b039091168152602090f35b5034611a92576080366003190112611a92575f546001546064356fffffffffffffffffffffffffffffffff8116926001600160a01b03908116921690839003611a92575f916044602092604051948593849263095ea7b360e01b845260048401528760248401525af18015611a8757611a96575b506001546001600160a01b031690813b15611a92575f9160848392604051948593849263322dda6d60e01b845260043560048501526024356024850152604435604485015260648401525af18015611a8757611a79575080f35b611a8591505f9061235a565b005b6040513d5f823e3d90fd5b5f80fd5b6020813d602011611ac5575b81611aaf6020938361235a565b81010312611a9257518015158114611a1f575f80fd5b3d9150611aa2565b34611a92575f366003190112611a925760ff5f5160206130445f395f51905f525460a01c1660ff8111611b0557602090604051908152f35b634e487b7160e01b5f52601160045260245ffd5b34611a92576040366003190112611a9257611a85600435611b3861224d565b90611b5e61049a825f525f5160206130245f395f51905f52602052600160405f20015490565b6129c1565b34611a92576020366003190112611a9257602061044c6004355f525f5160206130245f395f51905f52602052600160405f20015490565b34611a92576060366003190112611a9257610b3a611bb6612237565b611bbe61224d565b60443591611bcd833383612631565b6126cf565b34611a92575f366003190112611a9257611bea61248f565b600754805f526006602052600260ff60405f205416611c08816122c0565b03611c6957611c15612524565b5f526006602052600360405f208160ff1982541617815564ffffffffff421691829101557f85a6ab3215d2844c9543bd4f576c212cd1e20b63b999176fc39fce68d66b03cf602060075492604051908152a2005b6301b2776960e11b5f5260045ffd5b34611a92575f366003190112611a925760205f5160206130045f395f51905f5254604051908152f35b34611a92576020366003190112611a9257611cba61248f565b600754805f52600660205260405f2060405190611cd682612322565b60ff815416611ce4816122c0565b82526001810180549067ffffffffffffffff8211611f0c5760405191611d1060208260051b018461235a565b80835260208301915f5260205f205f925b828410611e8f5787876004888860208401526002810154604084015260038101546060840152015460808201528051611d59816122c0565b611d62816122c0565b15159081611e70575b50611c6957611d78612524565b60018101809111611b0557806007555f52600660205260405f206024602060018060a01b035f5416604051928380926370a0823160e01b82523060048301525afa908115611a87575f91611e3d575b506060817fd38c396241f1f99ab33d8b5738a4299bcde0fae38c9811fe859a33773a4eafa4926004850155600160ff19855416178455600364ffffffffff42169485600282015564ffffffffff611e206004354261242c565b1691829101556007549460405192835260208301526040820152a2005b90506020813d602011611e68575b81611e586020938361235a565b81010312611a9257516060611dc7565b3d9150611e4b565b6003915051611e7e816122c0565b611e87816122c0565b141582611d6b565b60405190611e9c8261233e565b825460ff8116916003831015611ef8578362ffffff6020936005956001975260081c16838201528486015460408201526002860154606082015260038601546080820152600486015460a0820152815201920193019290611d21565b634e487b7160e01b5f52602160045260245ffd5b634e487b7160e01b5f52604160045260245ffd5b34611a92576020366003190112611a92576001600160a01b03611f41612237565b165f526004602052602060405f2054604051908152f35b34611a92576020366003190112611a9257602061044c6004356125be565b34611a92576040366003190112611a9257611f8f612237565b602435903315612008576001600160a01b0316908115611ff557611fb233612263565b825f526020528060405f20556040519081527f8c5be1e5ebec7d5bd14f71427d1e84f3dd0314c0f7b2291e5b200ac8c7c3b92560203392a3602060405160018152f35b634a1406b160e11b5f525f60045260245ffd5b63e602df0560e01b5f525f60045260245ffd5b34611a92575f366003190112611a925761203361248f565b600754805f526006602052600160ff60405f205416612051816122c0565b03611c695761205e612524565b5f52600660205260405f20600260ff198254161790556007547f9cd9e6b32d109c78c8c15dd1aee0bc02854c1a6af3f6d32c2fb29f95b60f2e455f80a2005b34611a92575f366003190112611a92576040515f5f516020612fa45f395f51905f52546120c9816123f4565b808452906001811690811561215b57506001146120f1575b610c4483610c388185038261235a565b5f516020612fa45f395f51905f525f9081527f2ae08a8e29253f69ac5d979a101956ab8f8d9d7ded63fa7a83b16fc47648eab0939250905b80821061214157509091508101602001610c386120e1565b919260018160209254838588010152019101909291612129565b60ff191660208086019190915291151560051b84019091019150610c3890506120e1565b34611a92576020366003190112611a925760043563ffffffff60e01b8116809103611a9257602090637965db0b60e01b81149081156121c4575b506040519015158152f35b6301ffc9a760e01b149050826121b9565b34611a92575f366003190112611a9257602061044c61237c565b602060409281835280519182918282860152018484015e5f828201840152601f01601f1916010190565b34611a92576020366003190112611a9257602061044c60043561254b565b600435906001600160a01b0382168203611a9257565b602435906001600160a01b0382168203611a9257565b6001600160a01b03165f9081527f52c63247e1f47db19d5ce0460030c497f067ca4cebf71ba98eeadabe20bace016020526040902090565b34611a92576020366003190112611a92576122b4612237565b5060206040515f198152f35b60041115611ef857565b6060906003190112611a9257600435906024356001600160a01b0381168103611a9257906044356001600160a01b0381168103611a925790565b34611a92576020366003190112611a9257602061044c6004356125f8565b60a0810190811067ffffffffffffffff821117611f0c57604052565b60c0810190811067ffffffffffffffff821117611f0c57604052565b90601f8019910116810190811067ffffffffffffffff821117611f0c57604052565b5f5160206130445f395f51905f52546040516370a0823160e01b815230600482015290602090829060249082906001600160a01b03165afa908115611a87575f916123c5575090565b90506020813d6020116123ec575b816123e06020938361235a565b81010312611a92575190565b3d91506123d3565b90600182811c92168015612422575b602083101461240e57565b634e487b7160e01b5f52602260045260245ffd5b91607f1691612403565b91908201809211611b0557565b5f198114611b055760010190565b8015611b05575f190190565b91908203918211611b0557565b6001600160a01b03165f9081525f516020612fc45f395f51905f52602052604090205461248c9061254b565b90565b335f9081527fb7db2dd08fcb62d0c9e08c51941cae53c267786a0b75803fb7960902fc8ef97d602052604090205460ff16156124c757565b63e2517d3f60e01b5f52336004525f60245260445ffd5b5f8181525f5160206130245f395f51905f526020908152604080832033845290915290205460ff161561250e5750565b63e2517d3f60e01b5f523360045260245260445ffd5b60ff5f5160206130645f395f51905f52541661253c57565b63d93c066560e01b5f5260045ffd5b61255361237c565b9060018201809211611b05575f5160206130045f395f51905f525460018101809111611b055761248c925f92612aee565b61258c61237c565b9060018201809211611b05575f5160206130045f395f51905f525460018101809111611b055761248c92600192612aee565b5f5160206130045f395f51905f52549060018201809211611b05576125e161237c565b60018101809111611b055761248c92600192612aee565b5f5160206130045f395f51905f52549060018201809211611b055761261b61237c565b60018101809111611b055761248c925f92612aee565b919061263c83612263565b60018060a01b0382165f5260205260405f2054925f19841061265f575b50505050565b8284106126ac576001600160a01b03811615612008576001600160a01b03821615611ff55761268d90612263565b9060018060a01b03165f5260205260405f20910390555f808080612659565b508290637dc7a0d960e11b5f5260018060a01b031660045260245260445260645ffd5b6001600160a01b03169081156127a0576001600160a01b031691821561278d57815f525f516020612fc45f395f51905f5260205260405f205481811061277457817fddf252ad1be2c89b69c2b068fc378daa952ba7f163c4a11628f55a4df523b3ef92602092855f525f516020612fc45f395f51905f5284520360405f2055845f525f516020612fc45f395f51905f52825260405f20818154019055604051908152a3565b8263391434e360e21b5f5260045260245260445260645ffd5b63ec442f0560e01b5f525f60045260245ffd5b634b637e8f60e11b5f525f60045260245ffd5b6001600160a01b0381165f9081527fb7db2dd08fcb62d0c9e08c51941cae53c267786a0b75803fb7960902fc8ef97d602052604090205460ff1661284a576001600160a01b03165f8181527fb7db2dd08fcb62d0c9e08c51941cae53c267786a0b75803fb7960902fc8ef97d60205260408120805460ff191660011790553391905f516020612f845f395f51905f528180a4600190565b505f90565b6001600160a01b0381165f9081527f448256db8f8fb95ee3eaaf89c1051414494e85cebb6057fcf996cc3d0ccfb456602052604090205460ff1661284a576001600160a01b03165f8181527f448256db8f8fb95ee3eaaf89c1051414494e85cebb6057fcf996cc3d0ccfb45660205260408120805460ff191660011790553391907f97667070c54ef182b0f5858b034beac1b6f3089aa2d3188bb1e8929f4fa9b929905f516020612f845f395f51905f529080a4600190565b6001600160a01b0381165f9081527f06484cc59dc38e4f67c31122333a17ca81b3ca18cdf02bfc298072fa52b0316a602052604090205460ff1661284a576001600160a01b03165f8181527f06484cc59dc38e4f67c31122333a17ca81b3ca18cdf02bfc298072fa52b0316a60205260408120805460ff191660011790553391907f241ecf16d79d0f8dbfb92cbc07fe17840425976cf0667f022fe9877caa831b08905f516020612f845f395f51905f529080a4600190565b5f8181525f5160206130245f395f51905f52602090815260408083206001600160a01b038616845290915290205460ff16612a4c575f8181525f5160206130245f395f51905f52602090815260408083206001600160a01b0395909516808452949091528120805460ff19166001179055339291905f516020612f845f395f51905f529080a4600190565b50505f90565b5f8181525f5160206130245f395f51905f52602090815260408083206001600160a01b038616845290915290205460ff1615612a4c575f8181525f5160206130245f395f51905f52602090815260408083206001600160a01b0395909516808452949091528120805460ff19169055339291907ff6391f5c32d9c69d2a47ea670b442974b53935d1edc7fd64eb21e047a839171b9080a4600190565b9291600180612afe838588612dd5565b94612b08816122c0565b16149182612b20575b505061248c925015159061242c565b9080925015612b375761248c930915155f80612b11565b634e487b7160e01b5f52601260045260245ffd5b60ff5f5160206130a45f395f51905f525460401c1615612b6757565b631afcd79f60e31b5f5260045ffd5b5f5160206130445f395f51905f52546040516323b872dd60e01b60208201526001600160a01b039283166024820181905230604483015260648083018790528252949392612bcf9216612bca60848361235a565b612f2b565b6001600160a01b031692831561278d577fdcbc1c05240f31ff3ad067ef1ee35ce4997762752e3a095284754544f4c709d79181612c1c6040935f5160206130045f395f51905f525461242c565b5f5160206130045f395f51905f5255855f525f516020612fc45f395f51905f52602052825f20818154019055855f7fddf252ad1be2c89b69c2b068fc378daa952ba7f163c4a11628f55a4df523b3ef60208651858152a382519182526020820152a3565b6001600160a01b03808416959294908216939092918290878603612dc4575b50505084156127a057845f525f516020612fc45f395f51905f5260205260405f2054818110612dab5791816040927ffbde797d201c681b91056529119e0b02407c7bb96a4a2c75c01fc9667232c8db94885f525f516020612fc45f395f51905f5260205203835f2055805f5160206130045f395f51905f5254035f5160206130045f395f51905f52555f877fddf252ad1be2c89b69c2b068fc378daa952ba7f163c4a11628f55a4df523b3ef60208651858152a35f5160206130445f395f51905f5254835163a9059cbb60e01b60208201526001600160a01b03978816602482018190526044808301869052825297612d9e9216612bca60648361235a565b82519182526020820152a4565b8563391434e360e21b5f5260045260245260445260645ffd5b612dcd92612631565b5f8181612c9f565b90915f198383099280830292838086109503948086039514612e665784831115612e4e5790829109815f0382168092046002816003021880820260020302808202600203028082026002030280820260020302808202600203028091026002030293600183805f03040190848311900302920304170290565b82634e487b715f52156003026011186020526024601cfd5b505080925015612b37570490565b5f8091604051602081019063313ce56760e01b825260048152612e9860248261235a565b51916001600160a01b03165afa3d15612f23573d9067ffffffffffffffff8211611f0c5760405191612ed4601f8201601f19166020018461235a565b82523d5f602084013e5b80612f17575b612ef0575b505f905f90565b60208151918180820193849201010312611a92575160ff8111612ee9579060ff6001921690565b50602081511015612ee4565b606090612ede565b905f602091828151910182855af115611a87575f513d612f7a57506001600160a01b0381163b155b612f5a5750565b635274afe760e01b5f9081526001600160a01b0391909116600452602490fd5b60011415612f5356fe2f8788117e7eff1d82e926ec794901d17c78024a50270940304540a733656f0d52c63247e1f47db19d5ce0460030c497f067ca4cebf71ba98eeadabe20bace0352c63247e1f47db19d5ce0460030c497f067ca4cebf71ba98eeadabe20bace0052c63247e1f47db19d5ce0460030c497f067ca4cebf71ba98eeadabe20bace0452c63247e1f47db19d5ce0460030c497f067ca4cebf71ba98eeadabe20bace0202dd7bc7dec4dceedda775e58dd541e08a116c6c53815c0bd028192f7b6268000773e532dfede91f04b12a73d3d2acd361424f41f76b4fb79f090161e36b4e00cd5ed15c6e187e77e9aee88184c21f4f2182ab5827cb3b7e07fbedcd63f033009b779b17422d0df92223018b32b4d1fa46e071723d6817e2486d003becc55f00f0c57e16840df040f15088dc2f81fe391c3923bec73e23a9662efc9c229c6a00a2646970667358221220b78e8a07257379054aeb73efab46b0ce236fb471a0652bad33e77bf7ccbab1ad64736f6c634300081c0033f0c57e16840df040f15088dc2f81fe391c3923bec73e23a9662efc9c229c6a00",
    "linkReferences": {}
  },
  "methodIdentifiers": {
    "DEFAULT_ADMIN_ROLE()": "a217fddf",
    "MANAGER_ROLE()": "ec87621c",
    "OPERATOR_ROLE()": "f5b541a6",
    "allowance(address,address)": "dd62ed3e",
    "approve(address,uint256)": "095ea7b3",
    "asset()": "38d52e0f",
    "assetDeposit()": "5f204e2d",
    "balanceOf(address)": "70a08231",
    "convertToAssets(uint256)": "07a2d13a",
    "convertToShares(uint256)": "c6e6f592",
    "currentTradeCycleId()": "4a1232d9",
    "decimals()": "313ce567",
    "delegate((bytes32,address))": "ec90e42f",
    "deposit((bytes32,bytes32,bytes32,uint128))": "322dda6d",
    "deposit(uint256,address)": "6e553f65",
    "emergencyPause()": "51858e27",
    "emergencyUnpause()": "4a4e3bd5",
    "endTradeCycle()": "1dd1707f",
    "getRoleAdmin(bytes32)": "248a9ca3",
    "grantRole(bytes32,address)": "2f2ff15d",
    "hasRole(bytes32,address)": "91d14854",
    "initialize(address,address)": "485cc955",
    "initializeCycle()": "9e28a10e",
    "ivault()": "36134199",
    "maxDeposit(address)": "402d267d",
    "maxMint(address)": "c63d75b6",
    "maxRedeem(address)": "d905777e",
    "maxUserDeposit()": "aa9c5fc4",
    "maxWithdraw(address)": "ce96cb77",
    "mint(uint256,address)": "94bf804d",
    "name()": "06fdde03",
    "paused()": "5c975abb",
    "previewDeposit(uint256)": "ef8b30f7",
    "previewMint(uint256)": "b3d7f6b9",
    "previewRedeem(uint256)": "4cdad506",
    "previewWithdraw(uint256)": "0a28a477",
    "redeem(uint256,address,address)": "ba087652",
    "renounceRole(bytes32,address)": "36568abe",
    "requestToEndTradeCycle()": "073a831c",
    "revokeRole(bytes32,address)": "d547741f",
    "startTradeCycle(uint256)": "15658788",
    "supportsInterface(bytes4)": "01ffc9a7",
    "symbol()": "95d89b41",
    "totalAssets()": "01e1d114",
    "totalSupply()": "18160ddd",
    "totalTVL()": "a8bc6f7c",
    "totalUsers()": "bff1f9e1",
    "tradeCycles(uint256)": "44d45b9d",
    "transfer(address,uint256)": "a9059cbb",
    "transferFrom(address,address,uint256)": "23b872dd",
    "updateTradeCycleDuration(uint40)": "cd0206c2",
    "updateVariable(address,address)": "b2b80f67",
    "userDeposits(address)": "0ba36dcd",
    "whitelisted(address)": "d936547e",
    "withdraw(uint256,address,address)": "b460af94"
  },
  "storageLayout": {
    "storage": [
      {
        "astId": 59503,
        "contract": "src/contracts/DiracKodiakV1.sol:DiracKodiakV1",
        "label": "assetDeposit",
        "offset": 0,
        "slot": "0",
        "type": "t_contract(IERC20)47306"
      },
      {
        "astId": 59505,
        "contract": "src/contracts/DiracKodiakV1.sol:DiracKodiakV1",
        "label": "ivault",
        "offset": 0,
        "slot": "1",
        "type": "t_address"
      },
      {
        "astId": 59509,
        "contract": "src/contracts/DiracKodiakV1.sol:DiracKodiakV1",
        "label": "whitelisted",
        "offset": 0,
        "slot": "2",
        "type": "t_mapping(t_address,t_bool)"
      },
      {
        "astId": 59511,
        "contract": "src/contracts/DiracKodiakV1.sol:DiracKodiakV1",
        "label": "maxUserDeposit",
        "offset": 0,
        "slot": "3",
        "type": "t_uint256"
      },
      {
        "astId": 59515,
        "contract": "src/contracts/DiracKodiakV1.sol:DiracKodiakV1",
        "label": "userDeposits",
        "offset": 0,
        "slot": "4",
        "type": "t_mapping(t_address,t_uint256)"
      },
      {
        "astId": 59517,
        "contract": "src/contracts/DiracKodiakV1.sol:DiracKodiakV1",
        "label": "totalUsers",
        "offset": 0,
        "slot": "5",
        "type": "t_uint256"
      },
      {
        "astId": 59522,
        "contract": "src/contracts/DiracKodiakV1.sol:DiracKodiakV1",
        "label": "tradeCycles",
        "offset": 0,
        "slot": "6",
        "type": "t_mapping(t_uint256,t_struct(TradeCycle)58641_storage)"
      },
      {
        "astId": 59524,
        "contract": "src/contracts/DiracKodiakV1.sol:DiracKodiakV1",
        "label": "currentTradeCycleId",
        "offset": 0,
        "slot": "7",
        "type": "t_uint256"
      },
      {
        "astId": 59526,
        "contract": "src/contracts/DiracKodiakV1.sol:DiracKodiakV1",
        "label": "totalTVL",
        "offset": 0,
        "slot": "8",
        "type": "t_uint256"
      }
    ],
    "types": {
      "t_address": {
        "encoding": "inplace",
        "label": "address",
        "numberOfBytes": "20"
      },
      "t_array(t_struct(PositionData)58627_storage)dyn_storage": {
        "encoding": "dynamic_array",
        "label": "struct Data.PositionData[]",
        "numberOfBytes": "32",
        "base": "t_struct(PositionData)58627_storage"
      },
      "t_bool": {
        "encoding": "inplace",
        "label": "bool",
        "numberOfBytes": "1"
      },
      "t_contract(IERC20)47306": {
        "encoding": "inplace",
        "label": "contract IERC20",
        "numberOfBytes": "20"
      },
      "t_enum(PositionStatus)58613": {
        "encoding": "inplace",
        "label": "enum Data.PositionStatus",
        "numberOfBytes": "1"
      },
      "t_enum(TradeCycleStatus)58609": {
        "encoding": "inplace",
        "label": "enum Data.TradeCycleStatus",
        "numberOfBytes": "1"
      },
      "t_mapping(t_address,t_bool)": {
        "encoding": "mapping",
        "key": "t_address",
        "label": "mapping(address => bool)",
        "numberOfBytes": "32",
        "value": "t_bool"
      },
      "t_mapping(t_address,t_uint256)": {
        "encoding": "mapping",
        "key": "t_address",
        "label": "mapping(address => uint256)",
        "numberOfBytes": "32",
        "value": "t_uint256"
      },
      "t_mapping(t_uint256,t_struct(TradeCycle)58641_storage)": {
        "encoding": "mapping",
        "key": "t_uint256",
        "label": "mapping(uint256 => struct Data.TradeCycle)",
        "numberOfBytes": "32",
        "value": "t_struct(TradeCycle)58641_storage"
      },
      "t_struct(PositionData)58627_storage": {
        "encoding": "inplace",
        "label": "struct Data.PositionData",
        "numberOfBytes": "160",
        "members": [
          {
            "astId": 58616,
            "contract": "src/contracts/DiracKodiakV1.sol:DiracKodiakV1",
            "label": "status",
            "offset": 0,
            "slot": "0",
            "type": "t_enum(PositionStatus)58613"
          },
          {
            "astId": 58618,
            "contract": "src/contracts/DiracKodiakV1.sol:DiracKodiakV1",
            "label": "positionId",
            "offset": 1,
            "slot": "0",
            "type": "t_uint24"
          },
          {
            "astId": 58620,
            "contract": "src/contracts/DiracKodiakV1.sol:DiracKodiakV1",
            "label": "depositAt",
            "offset": 0,
            "slot": "1",
            "type": "t_uint256"
          },
          {
            "astId": 58622,
            "contract": "src/contracts/DiracKodiakV1.sol:DiracKodiakV1",
            "label": "withdrawAt",
            "offset": 0,
            "slot": "2",
            "type": "t_uint256"
          },
          {
            "astId": 58624,
            "contract": "src/contracts/DiracKodiakV1.sol:DiracKodiakV1",
            "label": "amountDeposited",
            "offset": 0,
            "slot": "3",
            "type": "t_uint256"
          },
          {
            "astId": 58626,
            "contract": "src/contracts/DiracKodiakV1.sol:DiracKodiakV1",
            "label": "amountWithdrawal",
            "offset": 0,
            "slot": "4",
            "type": "t_uint256"
          }
        ]
      },
      "t_struct(TradeCycle)58641_storage": {
        "encoding": "inplace",
        "label": "struct Data.TradeCycle",
        "numberOfBytes": "160",
        "members": [
          {
            "astId": 58630,
            "contract": "src/contracts/DiracKodiakV1.sol:DiracKodiakV1",
            "label": "status",
            "offset": 0,
            "slot": "0",
            "type": "t_enum(TradeCycleStatus)58609"
          },
          {
            "astId": 58634,
            "contract": "src/contracts/DiracKodiakV1.sol:DiracKodiakV1",
            "label": "positions",
            "offset": 0,
            "slot": "1",
            "type": "t_array(t_struct(PositionData)58627_storage)dyn_storage"
          },
          {
            "astId": 58636,
            "contract": "src/contracts/DiracKodiakV1.sol:DiracKodiakV1",
            "label": "startedAt",
            "offset": 0,
            "slot": "2",
            "type": "t_uint256"
          },
          {
            "astId": 58638,
            "contract": "src/contracts/DiracKodiakV1.sol:DiracKodiakV1",
            "label": "endedAt",
            "offset": 0,
            "slot": "3",
            "type": "t_uint256"
          },
          {
            "astId": 58640,
            "contract": "src/contracts/DiracKodiakV1.sol:DiracKodiakV1",
            "label": "AmountAvailable",
            "offset": 0,
            "slot": "4",
            "type": "t_uint256"
          }
        ]
      },
      "t_uint24": {
        "encoding": "inplace",
        "label": "uint24",
        "numberOfBytes": "3"
      },
      "t_uint256": {
        "encoding": "inplace",
        "label": "uint256",
        "numberOfBytes": "32"
      }
    }
  },
  "id": 68
}